{
  "transactions": [
    {
      "hash": "0xb4e2fb1561371da6d2d6e68cc4293667c4c48c2ecdda5e8b7989696af9b20dc5",
      "transactionType": "CALL",
      "contractName": null,
      "contractAddress": "0x5e50dd33788815f4061b601e20dac38a7d2bdf73",
      "function": "mintNft(string)",
      "arguments": [
        "ipfs://bafybeig37ioir76s7mg5oobetncojcm3c3hxasyd4rvid4jqhy4gkaheg4/?filename=0-PUG.json"
      ],
      "transaction": {
        "from": "0x2d3ba713dffa8b78ee874ad7c217d9d97c7915e2",
        "to": "0x5e50dd33788815f4061b601e20dac38a7d2bdf73",
        "gas": "0x3da7f",
        "value": "0x0",
        "input": "0xda86f4a900000000000000000000000000000000000000000000000000000000000000200000000000000000000000000000000000000000000000000000000000000057697066733a2f2f62616679626569673337696f6972373673376d67356f6f6265746e636f6a636d3363336878617379643472766964346a71687934676b61686567342f3f66696c656e616d653d302d5055472e6a736f6e000000000000000000",
        "nonce": "0x61",
        "chainId": "0xaa36a7"
      },
      "additionalContracts": [],
      "isFixedGasLimit": false
    }
  ],
  "receipts": [
    {
      "status": "0x1",
      "cumulativeGasUsed": "0x13829bc",
      "logs": [
        {
          "address": "0x5e50dd33788815f4061b601e20dac38a7d2bdf73",
          "topics": [
            "0xddf252ad1be2c89b69c2b068fc378daa952ba7f163c4a11628f55a4df523b3ef",
            "0x0000000000000000000000000000000000000000000000000000000000000000",
            "0x0000000000000000000000002d3ba713dffa8b78ee874ad7c217d9d97c7915e2",
            "0x0000000000000000000000000000000000000000000000000000000000000000"
          ],
          "data": "0x",
          "blockHash": "0x28c4cb02778a7df8a29dcd0488665581237aa9591ae072f4e45cfa34b55ffbc9",
          "blockNumber": "0x8020d4",
          "blockTimestamp": "0x6831dadc",
          "transactionHash": "0xb4e2fb1561371da6d2d6e68cc4293667c4c48c2ecdda5e8b7989696af9b20dc5",
          "transactionIndex": "0x85",
          "logIndex": "0x180",
          "removed": false
        }
      ],
      "logsBloom": "0x00000000000000000000000000000000000000000000000000000100000000000000000000000400000000000000000000000000000000000000000000000000000000000000000000000008000000000000000800000000000000000000000000000000020000000000000000000800000000000000000000000010000000000000000000000000000000000000000000000000000000000002000000000000000000000000000000000000000000000000000000000001000000000000000000000002000000000000000000000000000000000000000000000000000020000000000000000000000000000000000000000000000000000000000000000800",
      "type": "0x2",
      "transactionHash": "0xb4e2fb1561371da6d2d6e68cc4293667c4c48c2ecdda5e8b7989696af9b20dc5",
      "transactionIndex": "0x85",
      "blockHash": "0x28c4cb02778a7df8a29dcd0488665581237aa9591ae072f4e45cfa34b55ffbc9",
      "blockNumber": "0x8020d4",
      "gasUsed": "0x2ca35",
      "effectiveGasPrice": "0x2491bd0",
      "from": "0x2d3ba713dffa8b78ee874ad7c217d9d97c7915e2",
      "to": "0x5e50dd33788815f4061b601e20dac38a7d2bdf73",
      "contractAddress": null
    }
  ],
  "libraries": [],
  "pending": [],
  "returns": {},
  "timestamp": 1748097757,
  "chain": 11155111,
  "commit": "27c714d"
}